:100000000C942A000C9434000C9434000C943400AA
:100010000C9434000C9434000C9434000C94340090
:100020000C9434000C9434000C9434000C94340080
:100030000C9434000C9434000C9434000C94340070
:100040000C9434000C9434000C9434000C94340060
:100050000C94340011241FBECFE5D8E0DEBFCDBF25
:100060000E9482000C94A7000C940000683008F5F0
:1000700041110FC0E82FF92F229181E090E002C0DA
:10008000880F991F6A95E2F780958223808380E02C
:100090000895413081F4E82FF92F229181E090E01A
:1000A00002C0880F991F6A95E2F7822B808380E057
:1000B00008958FEF089580E008956830F8F44111B5
:1000C0000EC0FC01408121E030E002C0220F331F4E
:1000D0006A95E2F720952423208380E0089541303B
:1000E00079F4FC01408121E030E002C0220F331F8F
:1000F0006A95E2F7242B208380E008958FEF08951E
:1001000080E0089541E061E08BE390E00E943600DA
:1001100041E061E08BE390E00E945D002FE38DE021
:1001200093E0215080409040E1F700C0000040E0A3
:1001300061E08BE390E00E945D002FE38DE093E0AF
:10014000215080409040E1F700C00000E1CFF894DA
:02015000FFCFDF
:00000001FF
