:100000000C943A000C944F000C944F000C944F0049
:100010000C944F000C944F000C944F000C944F0024
:100020000C944F000C944F000C944F000C944F0014
:100030000C944F000C944F000C944F000C944F0004
:100040000C944F000C944F000C944F000C944F00F4
:100050000C944F000C944F000C944F000C944F00E4
:100060000C944F000C944F000C944F000C944F00D4
:100070000C944F0011241FBECFEFD4E0DEBFCDBFE4
:1000800011E0A0E0B1E0ECE8F5E002C005900D92CF
:10009000A830B107D9F70E949D000C94C4020C94BB
:1000A00000006830F8F441110EC0FC01408121E0ED
:1000B00030E002C0220F331F6A95E2F72095242317
:1000C000208380E00895413079F4FC01408121E0F3
:1000D00030E002C0220F331F6A95E2F7242B208301
:1000E00080E008958FEF089580E00895683058F417
:1000F000FC013297808190E002C0959587956A95C2
:10010000E2F7817008958FEF0895611104C0FC013A
:10011000319710820895613021F4FC0131972FEF5F
:1001200020830895611103C0FC011082089561309D
:1001300019F42FEFFC0120830895CF93DF93CDB7FF
:10014000DEB728970FB6F894DEBF0FBECDBF60E0D4
:100150008BE390E00E94850061E085E390E00E94DF
:10016000850061E08BE390E00E94920060E085E30F
:1001700090E00E94920088E0E0E0F1E0DE0111965C
:1001800001900D928A95E1F760E08BE390E00E9488
:10019000760081111CC061E085E390E00E9492002E
:1001A0002FE986E891E0215080409040E1F700C0BF
:1001B000000060E085E390E00E9492002FE986E86D
:1001C00091E0215080409040E1F700C0000061E0E4
:1001D0008BE390E00E947600882309F128C0E1E0DB
:1001E000F0E0EC0FFD1FE10FF11D17FDFA95008106
:1001F00041E0602F85E390E00E9451002FE58AEEF8
:1002000090E0215080409040E1F700C0000040E0C5
:10021000602F85E390E00E9451001F5F01C010E055
:100220001830ECF260E085E390E00E94920062E01A
:100230008BE390E00E947600882309F128C0E1E07A
:10024000F0E0EC0FFD1FE10FF11D17FDFA950081A5
:1002500041E0602F85E390E00E9451002FE58AEE97
:1002600090E0215080409040E1F700C0000040E065
:10027000602F85E390E00E945100115001C017E00B
:100280001123ECF660E085E390E00E94920063E0C9
:100290008BE390E00E947600882361F133C0E12E69
:1002A000012E000CFF08E1E0F0E0EC0FFD1FEE0D69
:1002B000FF1D41E0608185E390E00E945100E7E08E
:1002C000F0E0EE19FF0981E090E08C0F9D1FE80F30
:1002D000F91F41E0608185E390E00E9451009FE5B5
:1002E0002AEE80E0915020408040E1F700C00000FD
:1002F0001F5F01C010E0143094F260E085E390E0ED
:100300000E94920064E08BE390E00E9476008823D4
:1003100061F133C0E12E012E000CFF08E1E0F0E0B6
:10032000EC0FFD1FEE0DFF1D41E0608185E390E0C5
:100330000E945100E7E0F0E0EE19FF0981E090E053
:100340008C0F9D1FE80FF91F41E0608185E390E06D
:100350000E9451009FE52AEE80E0915020408040AD
:10036000E1F700C00000115001C013E0112394F622
:1003700060E085E390E00E94920065E08BE390E00E
:100380000E947600882309F14BC0E1E0F0E0EC0F19
:10039000FD1FE10FF11D17FDFA95008141E0602F6F
:1003A00085E390E00E9451009FE52AEE80E09150A5
:1003B00020408040E1F700C0000040E0602F85E36E
:1003C00090E00E9451001F5F01C010E01830ECF275
:1003D00017E01FC0E1E0F0E0EC0FFD1FE10FF11DA1
:1003E00017FDFA95008141E0602F85E390E00E94BF
:1003F00051009FE52AEE80E0915020408040E1F7D7
:1004000000C0000040E0602F85E390E00E945100B2
:1004100011501123FCF660E085E390E00E94920009
:1004200066E08BE390E00E9476008823D1F042C022
:10043000E1E0F0E0EC0FFD1FE10FF11D17FDFA9573
:1004400041E0608185E390E00E9451009FE52AEE43
:1004500080E0915020408040E1F700C000001F5F25
:1004600001C010E0183024F360E085E390E00E94C2
:10047000920017E018C0E1E0F0E0EC0FFD1FE10F83
:10048000F11D17FDFA9541E0608185E390E00E943F
:1004900051009FE52AEE80E0915020408040E1F736
:1004A00000C000001150112334F760E085E390E0B4
:1004B0000E94920067E08BE390E00E947600811139
:1004C00063CE2BC0E12E012E000CFF08E1E0F0E02E
:1004D000EC0FFD1FEE0DFF1D41E0608185E390E014
:1004E0000E945100E7E0F0E0EE19FF0981E090E0A2
:1004F0008C0F9D1FE80FF91F41E0608185E390E0BC
:100500000E9451009FE52AEE80E0915020408040FB
:10051000E1F700C000001F5F01C010E0143094F24A
:1005200013E02AC0E12E012E000CFF08E1E0F0E00C
:10053000EC0FFD1FEE0DFF1D40E0608185E390E0B4
:100540000E945100E7E0F0E0EE19FF0981E090E041
:100550008C0F9D1FE80FF91F40E0608185E390E05C
:100560000E9451009FE52AEE80E09150204080409B
:10057000E1F700C0000011501123A4F660E085E30C
:0C05800090E00E94920000CEF894FFCFA3
:08058C0000010203040506074B
:00000001FF
