S01A00004C45442053657373696F6E2032205461736B2E737265632C
S11300000C943A000C944F000C944F000C944F0045
S11300100C944F000C944F000C944F000C944F0020
S11300200C944F000C944F000C944F000C944F0010
S11300300C944F000C944F000C944F000C944F0000
S11300400C944F000C944F000C944F000C944F00F0
S11300500C944F000C944F000C944F000C944F00E0
S11300600C944F000C944F000C944F000C944F00D0
S11300700C944F0011241FBECFEFD4E0DEBFCDBFE0
S113008011E0A0E0B1E0E8E3F5E002C005900D92D4
S1130090A830B107D9F70E949D000C949A020C94E1
S11300A000006830F8F441110EC0FC01408121E0E9
S11300B030E002C0220F331F6A95E2F72095242313
S11300C0208380E00895413079F4FC01408121E0EF
S11300D030E002C0220F331F6A95E2F7242B2083FD
S11300E080E008958FEF089580E00895683058F413
S11300F0FC013297808190E002C0959587956A95BE
S1130100E2F7817008958FEF0895611104C0FC0136
S1130110319710820895613021F4FC0131972FEF5B
S113012020830895611103C0FC0110820895613099
S113013019F42FEFFC0120830895CF93DF93CDB7FB
S1130140DEB728970FB6F894DEBF0FBECDBF60E0D0
S11301508BE390E00E94850061E085E390E00E94DB
S1130160850061E08BE390E00E94920060E085E30B
S113017090E00E94920088E0E0E0F1E0DE01119658
S113018001900D928A95E1F760E08BE390E00E9484
S1130190760081111CC061E085E390E00E9492002A
S11301A02FE986E891E0215080409040E1F700C0BB
S11301B0000060E085E390E00E9492002FE986E869
S11301C091E0215080409040E1F700C0000061E0E0
S11301D08BE390E00E9476008823F9F026C0E1E0EA
S11301E0F0E0EC0FFD1FE10FF11DF08041E06F2DF9
S11301F085E390E00E9451002FE58AEE90E02150C3
S113020080409040E1F700C0000040E06F2D85E39E
S113021090E00E9451001F5F01C010E01830F8F216
S113022060E085E390E00E94920062E08BE390E05E
S11302300E9476008823F9F026C0E1E0F0E0EC0F9C
S1130240FD1FE10FF11DF08041E06F2D85E390E08B
S11302500E9451002FE58AEE90E0215080409040AA
S1130260E1F700C0000040E06F2D85E390E00E94BC
S11302705100115001C017E01111DFCF60E085E398
S113028090E00E94920063E08BE390E00E9476008D
S1130290882351F131C0E12EF12CE1E0F0E0EC0FC4
S11302A0FD1FEE0DFF1D41E0608185E390E00E949B
S11302B05100E7E0F0E0EE19FF0981E090E08C0FD7
S11302C09D1FE80FF91F41E0608185E390E00E94E3
S11302D051009FE52AEE80E0915020408040E1F7F4
S11302E000C000001F5F01C010E01430A0F260E005
S11302F085E390E00E94920064E08BE390E00E942A
S1130300760081112AC013E0E12EF12CE1E0F0E047
S1130310EC0FFD1FEE0DFF1D41E0608185E390E0D1
S11303200E945100E7E0F0E0EE19FF0981E090E05F
S11303308C0F9D1FE80FF91F41E0608185E390E079
S11303400E9451009FE52AEE80E0915020408040B9
S1130350E1F700C000001150D7CF65E08BE390E0D7
S11303600E947600811141C01EC0E1E0F0E0EC0F74
S1130370FD1FE10FF11DF08041E06F2D85E390E05A
S11303800E9451009FE52AEE80E091502040804079
S1130390E1F700C0000040E06F2D85E390E00E948B
S11303A051001F5F01C010E01830F8F217E0E1E0DF
S11303B0F0E0EC0FFD1FE10FF11DF08041E06F2D27
S11303C085E390E00E9451009FE52AEE80E0915081
S11303D020408040E1F700C0000040E06F2D85E33D
S11303E090E00E9451001150E2CF66E08BE390E070
S11303F00E947600811138C017C0E1E0F0E0EC0FF4
S1130400FD1FE10FF11D41E0608185E390E00E9452
S113041051009FE52AEE80E0915020408040E1F7B2
S113042000C000001F5F01C010E0183030F360E02E
S113043085E390E00E94920017E0E1E0F0E0EC0F29
S1130440FD1FE10FF11D41E0608185E390E00E9412
S113045051009FE52AEE80E0915020408040E1F772
S113046000C000001150E9CF67E08BE390E00E94E8
S11304707600811189CE29C0E12EF12CE1E0F0E073
S1130480EC0FFD1FEE0DFF1D41E0608185E390E060
S11304900E945100E7E0F0E0EE19FF0981E090E0EE
S11304A08C0F9D1FE80FF91F41E0608185E390E008
S11304B00E9451009FE52AEE80E091502040804048
S11304C0E1F700C000001F5F01C010E01430A0F28B
S11304D010E028C0E12EF12CE1E0F0E0EC0FFD1F6C
S11304E0EE0DFF1D41E0608185E390E00E94510024
S11304F0E7E0F0E0EE19FF0981E090E08C0F9D1F2A
S1130500E80FF91F41E0608185E390E00E9451000B
S11305109FE52AEE80E0915020408040E1F700C042
S113052000001F5F1430B0F260E085E390E00E94A9
S10B053092002ACEF894FFCFDB
S10B053800010203040506079B
S9030000FC
