:100000000C943A000C9457000C9457000C94570031
:100010000C9457000C9457000C9457000C94570004
:100020000C9457000C9457000C9457000C945700F4
:100030000C9457000C9457000C9457000C945700E4
:100040000C9457000C9457000C9457000C945700D4
:100050000C9457000C9457000C9457000C945700C4
:100060000C9457000C9457000C9457000C945700B4
:100070000C94570011241FBECFEFD4E0DEBFCDBFDC
:1000800011E0A0E0B1E0E8EBF0E002C005900D92D5
:10009000A030B107D9F721E0A0E0B1E001C01D9286
:1000A000A030B207E1F70E9459000C945A000C945A
:0800B0000000FFCFF894FFCF20
:00000001FF
